{
  "contractName": "Election",
  "abi": [
    {
      "inputs": [],
      "payable": false,
      "stateMutability": "nonpayable",
      "type": "constructor"
    },
    {
      "anonymous": false,
      "inputs": [
        {
          "indexed": true,
          "internalType": "uint256",
          "name": "_candidateId",
          "type": "uint256"
        }
      ],
      "name": "votedEvent",
      "type": "event"
    },
    {
      "constant": true,
      "inputs": [
        {
          "internalType": "uint256",
          "name": "",
          "type": "uint256"
        }
      ],
      "name": "candidates",
      "outputs": [
        {
          "internalType": "uint256",
          "name": "id",
          "type": "uint256"
        },
        {
          "internalType": "string",
          "name": "name",
          "type": "string"
        },
        {
          "internalType": "uint256",
          "name": "voteCount",
          "type": "uint256"
        }
      ],
      "payable": false,
      "stateMutability": "view",
      "type": "function"
    },
    {
      "constant": true,
      "inputs": [],
      "name": "cnt",
      "outputs": [
        {
          "internalType": "uint256",
          "name": "",
          "type": "uint256"
        }
      ],
      "payable": false,
      "stateMutability": "view",
      "type": "function"
    },
    {
      "constant": true,
      "inputs": [
        {
          "internalType": "address",
          "name": "",
          "type": "address"
        }
      ],
      "name": "voters",
      "outputs": [
        {
          "internalType": "bool",
          "name": "",
          "type": "bool"
        }
      ],
      "payable": false,
      "stateMutability": "view",
      "type": "function"
    },
    {
      "constant": false,
      "inputs": [
        {
          "internalType": "uint256",
          "name": "_candidateId",
          "type": "uint256"
        }
      ],
      "name": "vote",
      "outputs": [],
      "payable": false,
      "stateMutability": "nonpayable",
      "type": "function"
    }
  ],
  "bytecode": "0x608060405234801561001057600080fd5b506100556040518060400160405280600681526020017f636869726167000000000000000000000000000000000000000000000000000081525061009e60201b60201c565b6100996040518060400160405280600481526020017f746f6e790000000000000000000000000000000000000000000000000000000081525061009e60201b60201c565b6101bd565b60026000815460010191905081905550604051806060016040528060025481526020018281526020016000815250600160006002548152602001908152602001600020600082015181600001556020820151816001019080519060200190610107929190610118565b506040820151816002015590505050565b828054600181600116156101000203166002900490600052602060002090601f016020900481019282601f1061015957805160ff1916838001178555610187565b82800160010185558215610187579182015b8281111561018657825182559160200191906001019061016b565b5b5090506101949190610198565b5090565b6101ba91905b808211156101b657600081600090555060010161019e565b5090565b90565b6104b9806101cc6000396000f3fe608060405234801561001057600080fd5b506004361061004c5760003560e01c80630121b93f146100515780633477ee2e1461007f578063a3ec138d14610134578063d6d838ad14610190575b600080fd5b61007d6004803603602081101561006757600080fd5b81019080803590602001909291905050506101ae565b005b6100ab6004803603602081101561009557600080fd5b810190808035906020019092919050505061039c565b6040518084815260200180602001838152602001828103825284818151815260200191508051906020019080838360005b838110156100f75780820151818401526020810190506100dc565b50505050905090810190601f1680156101245780820380516001836020036101000a031916815260200191505b5094505050505060405180910390f35b6101766004803603602081101561014a57600080fd5b81019080803573ffffffffffffffffffffffffffffffffffffffff16906020019092919050505061045e565b604051808215151515815260200191505060405180910390f35b61019861047e565b6040518082815260200191505060405180910390f35b6000803373ffffffffffffffffffffffffffffffffffffffff1673ffffffffffffffffffffffffffffffffffffffff16815260200190815260200160002060009054906101000a900460ff161561026d576040517f08c379a000000000000000000000000000000000000000000000000000000000815260040180806020018281038252600d8152602001807f766f74696e67207477696365210000000000000000000000000000000000000081525060200191505060405180910390fd5b60008111801561027f57506002548111155b6102f1576040517f08c379a000000000000000000000000000000000000000000000000000000000815260040180806020018281038252600b8152602001807f696e76616c69642069642100000000000000000000000000000000000000000081525060200191505060405180910390fd5b60016000803373ffffffffffffffffffffffffffffffffffffffff1673ffffffffffffffffffffffffffffffffffffffff16815260200190815260200160002060006101000a81548160ff021916908315150217905550600160008281526020019081526020016000206002016000815460010191905081905550807ffff3c900d938d21d0990d786e819f29b8d05c1ef587b462b939609625b684b1660405160405180910390a250565b6001602052806000526040600020600091509050806000015490806001018054600181600116156101000203166002900480601f01602080910402602001604051908101604052809291908181526020018280546001816001161561010002031660029004801561044e5780601f106104235761010080835404028352916020019161044e565b820191906000526020600020905b81548152906001019060200180831161043157829003601f168201915b5050505050908060020154905083565b60006020528060005260406000206000915054906101000a900460ff1681565b6002548156fea265627a7a72315820151c70e5d28a32431e2a8648ee849ddae3846fe8e50ae3514135c259736963ac64736f6c63430005100032",
  "source": "pragma solidity >= 0.4.2;\n\ncontract Election {\n    struct Candidate {\n        uint id;\n        string name;\n        uint voteCount;\n    }\n\n    mapping(address => bool) public voters;\n    mapping(uint => Candidate) public candidates;\n\n    uint public cnt;\n\n    event votedEvent (\n        uint indexed _candidateId\n    );\n\n    constructor () public {\n        addCandidate(\"chirag\");\n        addCandidate(\"tony\");\n    }\n\n    function addCandidate(string memory _name) private {\n        ++cnt;\n        candidates[cnt] = Candidate(cnt, _name, 0);\n    }\n\n    function vote(uint _candidateId) public {\n        require(!voters[msg.sender], \"voting twice!\");\n        require((_candidateId > 0 && _candidateId <= cnt), \"invalid id!\");\n\n        voters[msg.sender] = true;\n        ++candidates[_candidateId].voteCount;\n\n        emit votedEvent(_candidateId);\n    }\n}",
  "sourcePath": "/home/digu_j/Desktop/Test_Ethereum/contracts/Election.sol",
  "compiler": {
    "name": "solc",
    "version": "0.5.16+commit.9c3226ce.Emscripten.clang"
  },
  "schemaVersion": "3.0.23",
  "updatedAt": "2020-03-07T16:16:20.097Z",
  "networkType": "ethereum",
  "devdoc": {
    "methods": {}
  },
  "userdoc": {
    "methods": {}
  }
}